{
  "contractName": "ProductManagement",
  "abi": [
    {
      "anonymous": false,
      "inputs": [
        {
          "indexed": true,
          "internalType": "address",
          "name": "manufacturer",
          "type": "address"
        },
        {
          "indexed": true,
          "internalType": "address",
          "name": "supplier",
          "type": "address"
        },
        {
          "indexed": false,
          "internalType": "string",
          "name": "productId",
          "type": "string"
        }
      ],
      "name": "ProductAdded",
      "type": "event"
    },
    {
      "anonymous": false,
      "inputs": [
        {
          "indexed": true,
          "internalType": "address",
          "name": "supplier",
          "type": "address"
        },
        {
          "indexed": true,
          "internalType": "address",
          "name": "hospital",
          "type": "address"
        },
        {
          "indexed": false,
          "internalType": "string",
          "name": "productId",
          "type": "string"
        }
      ],
      "name": "ProductTraceabilityUpdated",
      "type": "event"
    },
    {
      "inputs": [
        {
          "internalType": "address",
          "name": "",
          "type": "address"
        },
        {
          "internalType": "uint256",
          "name": "",
          "type": "uint256"
        }
      ],
      "name": "manufacturerProducts",
      "outputs": [
        {
          "internalType": "string",
          "name": "",
          "type": "string"
        }
      ],
      "stateMutability": "view",
      "type": "function",
      "constant": true
    },
    {
      "inputs": [
        {
          "internalType": "string",
          "name": "",
          "type": "string"
        }
      ],
      "name": "products",
      "outputs": [
        {
          "internalType": "address",
          "name": "manufacturer",
          "type": "address"
        },
        {
          "internalType": "address",
          "name": "supplier",
          "type": "address"
        },
        {
          "internalType": "address",
          "name": "hospital",
          "type": "address"
        },
        {
          "internalType": "string",
          "name": "manufacturerName",
          "type": "string"
        },
        {
          "internalType": "string",
          "name": "productId",
          "type": "string"
        },
        {
          "internalType": "string",
          "name": "productName",
          "type": "string"
        },
        {
          "internalType": "string",
          "name": "manufactureDate",
          "type": "string"
        },
        {
          "internalType": "string",
          "name": "imagePath",
          "type": "string"
        },
        {
          "internalType": "string",
          "name": "imageHash",
          "type": "string"
        }
      ],
      "stateMutability": "view",
      "type": "function",
      "constant": true
    },
    {
      "inputs": [
        {
          "internalType": "address",
          "name": "",
          "type": "address"
        },
        {
          "internalType": "uint256",
          "name": "",
          "type": "uint256"
        }
      ],
      "name": "supplierHospitals",
      "outputs": [
        {
          "internalType": "address",
          "name": "",
          "type": "address"
        }
      ],
      "stateMutability": "view",
      "type": "function",
      "constant": true
    },
    {
      "inputs": [
        {
          "internalType": "address",
          "name": "",
          "type": "address"
        },
        {
          "internalType": "uint256",
          "name": "",
          "type": "uint256"
        }
      ],
      "name": "supplierProducts",
      "outputs": [
        {
          "internalType": "string",
          "name": "",
          "type": "string"
        }
      ],
      "stateMutability": "view",
      "type": "function",
      "constant": true
    },
    {
      "inputs": [
        {
          "internalType": "address",
          "name": "manufacturer",
          "type": "address"
        },
        {
          "internalType": "address",
          "name": "supplier",
          "type": "address"
        },
        {
          "internalType": "string",
          "name": "manufacturerName",
          "type": "string"
        },
        {
          "internalType": "string",
          "name": "productId",
          "type": "string"
        },
        {
          "internalType": "string",
          "name": "productName",
          "type": "string"
        },
        {
          "internalType": "string",
          "name": "manufactureDate",
          "type": "string"
        },
        {
          "internalType": "string",
          "name": "imagePath",
          "type": "string"
        },
        {
          "internalType": "string",
          "name": "imageHash",
          "type": "string"
        }
      ],
      "name": "addProductWithSupplier",
      "outputs": [],
      "stateMutability": "nonpayable",
      "type": "function"
    },
    {
      "inputs": [
        {
          "internalType": "address",
          "name": "supplier",
          "type": "address"
        },
        {
          "internalType": "address",
          "name": "hospital",
          "type": "address"
        },
        {
          "internalType": "string",
          "name": "productId",
          "type": "string"
        }
      ],
      "name": "linkSupplierWithHospital",
      "outputs": [],
      "stateMutability": "nonpayable",
      "type": "function"
    },
    {
      "inputs": [
        {
          "internalType": "address",
          "name": "manufacturer",
          "type": "address"
        }
      ],
      "name": "getProductsByManufacturer",
      "outputs": [
        {
          "internalType": "string[]",
          "name": "",
          "type": "string[]"
        }
      ],
      "stateMutability": "view",
      "type": "function",
      "constant": true
    },
    {
      "inputs": [
        {
          "internalType": "address",
          "name": "supplier",
          "type": "address"
        }
      ],
      "name": "getProductsBySupplier",
      "outputs": [
        {
          "internalType": "string[]",
          "name": "",
          "type": "string[]"
        }
      ],
      "stateMutability": "view",
      "type": "function",
      "constant": true
    },
    {
      "inputs": [
        {
          "internalType": "address",
          "name": "supplier",
          "type": "address"
        }
      ],
      "name": "getHospitalsBySupplier",
      "outputs": [
        {
          "internalType": "address[]",
          "name": "",
          "type": "address[]"
        }
      ],
      "stateMutability": "view",
      "type": "function",
      "constant": true
    },
    {
      "inputs": [
        {
          "internalType": "string",
          "name": "productId",
          "type": "string"
        }
      ],
      "name": "getProductDetails",
      "outputs": [
        {
          "internalType": "address",
          "name": "manufacturer",
          "type": "address"
        },
        {
          "internalType": "address",
          "name": "supplier",
          "type": "address"
        },
        {
          "internalType": "address",
          "name": "hospital",
          "type": "address"
        },
        {
          "internalType": "string",
          "name": "productIdOut",
          "type": "string"
        },
        {
          "internalType": "string",
          "name": "productName",
          "type": "string"
        },
        {
          "internalType": "string",
          "name": "manufactureDate",
          "type": "string"
        },
        {
          "internalType": "string",
          "name": "imagePath",
          "type": "string"
        },
        {
          "internalType": "string",
          "name": "imageHash",
          "type": "string"
        }
      ],
      "stateMutability": "view",
      "type": "function",
      "constant": true
    }
  ],
  "bytecode": "0x608060405234801561001057600080fd5b5061240b806100206000396000f3fe608060405234801561001057600080fd5b506004361061009e5760003560e01c806361a652fb1161006657806361a652fb1461018e578063849df74a146101be57806396fbed5d146101ee5780639cc2fcc61461021e578063d24491481461024e5761009e565b80630186a423146100a3578063198c59b0146100db57806327b90b1b1461011257806344349eff146101425780635fe2b9ce1461015e575b600080fd5b6100bd60048036038101906100b891906117f2565b61026a565b6040516100d2999897969594939291906118fb565b60405180910390f35b6100f560048036038101906100f091906117f2565b61065e565b6040516101099897969594939291906119b2565b60405180910390f35b61012c60048036038101906101279190611ab5565b610b93565b6040516101399190611af5565b60405180910390f35b61015c60048036038101906101579190611b17565b610c4c565b005b61017860048036038101906101739190611ab5565b61100c565b6040516101859190611af5565b60405180910390f35b6101a860048036038101906101a39190611ab5565b6110c5565b6040516101b59190611c75565b60405180910390f35b6101d860048036038101906101d39190611c90565b611113565b6040516101e59190611dc9565b60405180910390f35b61020860048036038101906102039190611c90565b61122b565b6040516102159190611ea9565b60405180910390f35b61023860048036038101906102339190611c90565b6112f8565b6040516102459190611dc9565b60405180910390f35b61026860048036038101906102639190611ecb565b611410565b005b6000818051602081018201805184825260208301602085012081835280955050505050506000915090508060000160009054906101000a900473ffffffffffffffffffffffffffffffffffffffff16908060010160009054906101000a900473ffffffffffffffffffffffffffffffffffffffff16908060020160009054906101000a900473ffffffffffffffffffffffffffffffffffffffff169080600301805461031590611f69565b80601f016020809104026020016040519081016040528092919081815260200182805461034190611f69565b801561038e5780601f106103635761010080835404028352916020019161038e565b820191906000526020600020905b81548152906001019060200180831161037157829003601f168201915b5050505050908060040180546103a390611f69565b80601f01602080910402602001604051908101604052809291908181526020018280546103cf90611f69565b801561041c5780601f106103f15761010080835404028352916020019161041c565b820191906000526020600020905b8154815290600101906020018083116103ff57829003601f168201915b50505050509080600501805461043190611f69565b80601f016020809104026020016040519081016040528092919081815260200182805461045d90611f69565b80156104aa5780601f1061047f576101008083540402835291602001916104aa565b820191906000526020600020905b81548152906001019060200180831161048d57829003601f168201915b5050505050908060060180546104bf90611f69565b80601f01602080910402602001604051908101604052809291908181526020018280546104eb90611f69565b80156105385780601f1061050d57610100808354040283529160200191610538565b820191906000526020600020905b81548152906001019060200180831161051b57829003601f168201915b50505050509080600701805461054d90611f69565b80601f016020809104026020016040519081016040528092919081815260200182805461057990611f69565b80156105c65780601f1061059b576101008083540402835291602001916105c6565b820191906000526020600020905b8154815290600101906020018083116105a957829003601f168201915b5050505050908060080180546105db90611f69565b80601f016020809104026020016040519081016040528092919081815260200182805461060790611f69565b80156106545780601f1061062957610100808354040283529160200191610654565b820191906000526020600020905b81548152906001019060200180831161063757829003601f168201915b5050505050905089565b600080600060608060608060606000808a60405161067c9190611fd6565b9081526020016040518091039020604051806101200160405290816000820160009054906101000a900473ffffffffffffffffffffffffffffffffffffffff1673ffffffffffffffffffffffffffffffffffffffff1673ffffffffffffffffffffffffffffffffffffffff1681526020016001820160009054906101000a900473ffffffffffffffffffffffffffffffffffffffff1673ffffffffffffffffffffffffffffffffffffffff1673ffffffffffffffffffffffffffffffffffffffff1681526020016002820160009054906101000a900473ffffffffffffffffffffffffffffffffffffffff1673ffffffffffffffffffffffffffffffffffffffff1673ffffffffffffffffffffffffffffffffffffffff1681526020016003820180546107a890611f69565b80601f01602080910402602001604051908101604052809291908181526020018280546107d490611f69565b80156108215780601f106107f657610100808354040283529160200191610821565b820191906000526020600020905b81548152906001019060200180831161080457829003601f168201915b5050505050815260200160048201805461083a90611f69565b80601f016020809104026020016040519081016040528092919081815260200182805461086690611f69565b80156108b35780601f10610888576101008083540402835291602001916108b3565b820191906000526020600020905b81548152906001019060200180831161089657829003601f168201915b505050505081526020016005820180546108cc90611f69565b80601f01602080910402602001604051908101604052809291908181526020018280546108f890611f69565b80156109455780601f1061091a57610100808354040283529160200191610945565b820191906000526020600020905b81548152906001019060200180831161092857829003601f168201915b5050505050815260200160068201805461095e90611f69565b80601f016020809104026020016040519081016040528092919081815260200182805461098a90611f69565b80156109d75780601f106109ac576101008083540402835291602001916109d7565b820191906000526020600020905b8154815290600101906020018083116109ba57829003601f168201915b505050505081526020016007820180546109f090611f69565b80601f0160208091040260200160405190810160405280929190818152602001828054610a1c90611f69565b8015610a695780601f10610a3e57610100808354040283529160200191610a69565b820191906000526020600020905b815481529060010190602001808311610a4c57829003601f168201915b50505050508152602001600882018054610a8290611f69565b80601f0160208091040260200160405190810160405280929190818152602001828054610aae90611f69565b8015610afb5780601f10610ad057610100808354040283529160200191610afb565b820191906000526020600020905b815481529060010190602001808311610ade57829003601f168201915b5050505050815250509050600081608001515103610b4e576040517f08c379a0000000000000000000000000000000000000000000000000000000008152600401610b4590612039565b60405180910390fd5b80600001518160200151826040015183608001518460a001518560c001518660e001518761010001519850985098509850985098509850985050919395975091939597565b60026020528160005260406000208181548110610baf57600080fd5b90600052602060002001600091509150508054610bcb90611f69565b80601f0160208091040260200160405190810160405280929190818152602001828054610bf790611f69565b8015610c445780601f10610c1957610100808354040283529160200191610c44565b820191906000526020600020905b815481529060010190602001808311610c2757829003601f168201915b505050505081565b60008086604051610c5d9190611fd6565b90815260200160405180910390206004018054610c7990611f69565b905014610cbb576040517f08c379a0000000000000000000000000000000000000000000000000000000008152600401610cb2906120a5565b60405180910390fd5b6040518061012001604052808973ffffffffffffffffffffffffffffffffffffffff1681526020018873ffffffffffffffffffffffffffffffffffffffff168152602001600073ffffffffffffffffffffffffffffffffffffffff16815260200187815260200186815260200185815260200184815260200183815260200182815250600086604051610d4e9190611fd6565b908152602001604051809103902060008201518160000160006101000a81548173ffffffffffffffffffffffffffffffffffffffff021916908373ffffffffffffffffffffffffffffffffffffffff16021790555060208201518160010160006101000a81548173ffffffffffffffffffffffffffffffffffffffff021916908373ffffffffffffffffffffffffffffffffffffffff16021790555060408201518160020160006101000a81548173ffffffffffffffffffffffffffffffffffffffff021916908373ffffffffffffffffffffffffffffffffffffffff1602179055506060820151816003019081610e469190612271565b506080820151816004019081610e5c9190612271565b5060a0820151816005019081610e729190612271565b5060c0820151816006019081610e889190612271565b5060e0820151816007019081610e9e9190612271565b50610100820151816008019081610eb59190612271565b50905050600160008973ffffffffffffffffffffffffffffffffffffffff1673ffffffffffffffffffffffffffffffffffffffff16815260200190815260200160002085908060018154018082558091505060019003906000526020600020016000909190919091509081610f2a9190612271565b50600260008873ffffffffffffffffffffffffffffffffffffffff1673ffffffffffffffffffffffffffffffffffffffff16815260200190815260200160002085908060018154018082558091505060019003906000526020600020016000909190919091509081610f9c9190612271565b508673ffffffffffffffffffffffffffffffffffffffff168873ffffffffffffffffffffffffffffffffffffffff167ffc4ea7448c743dffb47022cdd7646a4daedc1af9318b27a6a933c00c39208e4087604051610ffa9190611af5565b60405180910390a35050505050505050565b6001602052816000526040600020818154811061102857600080fd5b9060005260206000200160009150915050805461104490611f69565b80601f016020809104026020016040519081016040528092919081815260200182805461107090611f69565b80156110bd5780601f10611092576101008083540402835291602001916110bd565b820191906000526020600020905b8154815290600101906020018083116110a057829003601f168201915b505050505081565b600360205281600052604060002081815481106110e157600080fd5b906000526020600020016000915091509054906101000a900473ffffffffffffffffffffffffffffffffffffffff1681565b6060600160008373ffffffffffffffffffffffffffffffffffffffff1673ffffffffffffffffffffffffffffffffffffffff168152602001908152602001600020805480602002602001604051908101604052809291908181526020016000905b8282101561122057838290600052602060002001805461119390611f69565b80601f01602080910402602001604051908101604052809291908181526020018280546111bf90611f69565b801561120c5780601f106111e15761010080835404028352916020019161120c565b820191906000526020600020905b8154815290600101906020018083116111ef57829003601f168201915b505050505081526020019060010190611174565b505050509050919050565b6060600360008373ffffffffffffffffffffffffffffffffffffffff1673ffffffffffffffffffffffffffffffffffffffff1681526020019081526020016000208054806020026020016040519081016040528092919081815260200182805480156112ec57602002820191906000526020600020905b8160009054906101000a900473ffffffffffffffffffffffffffffffffffffffff1673ffffffffffffffffffffffffffffffffffffffff16815260200190600101908083116112a2575b50505050509050919050565b6060600260008373ffffffffffffffffffffffffffffffffffffffff1673ffffffffffffffffffffffffffffffffffffffff168152602001908152602001600020805480602002602001604051908101604052809291908181526020016000905b8282101561140557838290600052602060002001805461137890611f69565b80601f01602080910402602001604051908101604052809291908181526020018280546113a490611f69565b80156113f15780601f106113c6576101008083540402835291602001916113f1565b820191906000526020600020905b8154815290600101906020018083116113d457829003601f168201915b505050505081526020019060010190611359565b505050509050919050565b600080826040516114219190611fd6565b9081526020016040518091039020600401805461143d90611f69565b90500361147f576040517f08c379a000000000000000000000000000000000000000000000000000000000815260040161147690612039565b60405180910390fd5b8273ffffffffffffffffffffffffffffffffffffffff166000826040516114a69190611fd6565b908152602001604051809103902060010160009054906101000a900473ffffffffffffffffffffffffffffffffffffffff1673ffffffffffffffffffffffffffffffffffffffff161461152e576040517f08c379a0000000000000000000000000000000000000000000000000000000008152600401611525906123b5565b60405180910390fd5b8160008260405161153f9190611fd6565b908152602001604051809103902060020160006101000a81548173ffffffffffffffffffffffffffffffffffffffff021916908373ffffffffffffffffffffffffffffffffffffffff160217905550600360008473ffffffffffffffffffffffffffffffffffffffff1673ffffffffffffffffffffffffffffffffffffffff168152602001908152602001600020829080600181540180825580915050600190039060005260206000200160009091909190916101000a81548173ffffffffffffffffffffffffffffffffffffffff021916908373ffffffffffffffffffffffffffffffffffffffff1602179055508173ffffffffffffffffffffffffffffffffffffffff168373ffffffffffffffffffffffffffffffffffffffff167f8bd74a7aa5419306050c877fe684714a5fb85f6ed29bfb960cd1723ffc6648b18360405161168b9190611af5565b60405180910390a3505050565b6000604051905090565b600080fd5b600080fd5b600080fd5b600080fd5b6000601f19601f8301169050919050565b7f4e487b7100000000000000000000000000000000000000000000000000000000600052604160045260246000fd5b6116ff826116b6565b810181811067ffffffffffffffff8211171561171e5761171d6116c7565b5b80604052505050565b6000611731611698565b905061173d82826116f6565b919050565b600067ffffffffffffffff82111561175d5761175c6116c7565b5b611766826116b6565b9050602081019050919050565b82818337600083830152505050565b600061179561179084611742565b611727565b9050828152602081018484840111156117b1576117b06116b1565b5b6117bc848285611773565b509392505050565b600082601f8301126117d9576117d86116ac565b5b81356117e9848260208601611782565b91505092915050565b600060208284031215611808576118076116a2565b5b600082013567ffffffffffffffff811115611826576118256116a7565b5b611832848285016117c4565b91505092915050565b600073ffffffffffffffffffffffffffffffffffffffff82169050919050565b60006118668261183b565b9050919050565b6118768161185b565b82525050565b600081519050919050565b600082825260208201905092915050565b60005b838110156118b657808201518184015260208101905061189b565b60008484015250505050565b60006118cd8261187c565b6118d78185611887565b93506118e7818560208601611898565b6118f0816116b6565b840191505092915050565b600061012082019050611911600083018c61186d565b61191e602083018b61186d565b61192b604083018a61186d565b818103606083015261193d81896118c2565b9050818103608083015261195181886118c2565b905081810360a083015261196581876118c2565b905081810360c083015261197981866118c2565b905081810360e083015261198d81856118c2565b90508181036101008301526119a281846118c2565b90509a9950505050505050505050565b6000610100820190506119c8600083018b61186d565b6119d5602083018a61186d565b6119e2604083018961186d565b81810360608301526119f481886118c2565b90508181036080830152611a0881876118c2565b905081810360a0830152611a1c81866118c2565b905081810360c0830152611a3081856118c2565b905081810360e0830152611a4481846118c2565b90509998505050505050505050565b611a5c8161185b565b8114611a6757600080fd5b50565b600081359050611a7981611a53565b92915050565b6000819050919050565b611a9281611a7f565b8114611a9d57600080fd5b50565b600081359050611aaf81611a89565b92915050565b60008060408385031215611acc57611acb6116a2565b5b6000611ada85828601611a6a565b9250506020611aeb85828601611aa0565b9150509250929050565b60006020820190508181036000830152611b0f81846118c2565b905092915050565b600080600080600080600080610100898b031215611b3857611b376116a2565b5b6000611b468b828c01611a6a565b9850506020611b578b828c01611a6a565b975050604089013567ffffffffffffffff811115611b7857611b776116a7565b5b611b848b828c016117c4565b965050606089013567ffffffffffffffff811115611ba557611ba46116a7565b5b611bb18b828c016117c4565b955050608089013567ffffffffffffffff811115611bd257611bd16116a7565b5b611bde8b828c016117c4565b94505060a089013567ffffffffffffffff811115611bff57611bfe6116a7565b5b611c0b8b828c016117c4565b93505060c089013567ffffffffffffffff811115611c2c57611c2b6116a7565b5b611c388b828c016117c4565b92505060e089013567ffffffffffffffff811115611c5957611c586116a7565b5b611c658b828c016117c4565b9150509295985092959890939650565b6000602082019050611c8a600083018461186d565b92915050565b600060208284031215611ca657611ca56116a2565b5b6000611cb484828501611a6a565b91505092915050565b600081519050919050565b600082825260208201905092915050565b6000819050602082019050919050565b600082825260208201905092915050565b6000611d058261187c565b611d0f8185611ce9565b9350611d1f818560208601611898565b611d28816116b6565b840191505092915050565b6000611d3f8383611cfa565b905092915050565b6000602082019050919050565b6000611d5f82611cbd565b611d698185611cc8565b935083602082028501611d7b85611cd9565b8060005b85811015611db75784840389528151611d988582611d33565b9450611da383611d47565b925060208a01995050600181019050611d7f565b50829750879550505050505092915050565b60006020820190508181036000830152611de38184611d54565b905092915050565b600081519050919050565b600082825260208201905092915050565b6000819050602082019050919050565b611e208161185b565b82525050565b6000611e328383611e17565b60208301905092915050565b6000602082019050919050565b6000611e5682611deb565b611e608185611df6565b9350611e6b83611e07565b8060005b83811015611e9c578151611e838882611e26565b9750611e8e83611e3e565b925050600181019050611e6f565b5085935050505092915050565b60006020820190508181036000830152611ec38184611e4b565b905092915050565b600080600060608486031215611ee457611ee36116a2565b5b6000611ef286828701611a6a565b9350506020611f0386828701611a6a565b925050604084013567ffffffffffffffff811115611f2457611f236116a7565b5b611f30868287016117c4565b9150509250925092565b7f4e487b7100000000000000000000000000000000000000000000000000000000600052602260045260246000fd5b60006002820490506001821680611f8157607f821691505b602082108103611f9457611f93611f3a565b5b50919050565b600081905092915050565b6000611fb08261187c565b611fba8185611f9a565b9350611fca818560208601611898565b80840191505092915050565b6000611fe28284611fa5565b915081905092915050565b7f50726f6475637420646f6573206e6f742065786973742e000000000000000000600082015250565b6000612023601783611887565b915061202e82611fed565b602082019050919050565b6000602082019050818103600083015261205281612016565b9050919050565b7f50726f6475637420494420616c7265616479206578697374732e000000000000600082015250565b600061208f601a83611887565b915061209a82612059565b602082019050919050565b600060208201905081810360008301526120be81612082565b9050919050565b60008190508160005260206000209050919050565b60006020601f8301049050919050565b600082821b905092915050565b6000600883026121277fffffffffffffffffffffffffffffffffffffffffffffffffffffffffffffffff826120ea565b61213186836120ea565b95508019841693508086168417925050509392505050565b6000819050919050565b600061216e61216961216484611a7f565b612149565b611a7f565b9050919050565b6000819050919050565b61218883612153565b61219c61219482612175565b8484546120f7565b825550505050565b600090565b6121b16121a4565b6121bc81848461217f565b505050565b5b818110156121e0576121d56000826121a9565b6001810190506121c2565b5050565b601f821115612225576121f6816120c5565b6121ff846120da565b8101602085101561220e578190505b61222261221a856120da565b8301826121c1565b50505b505050565b600082821c905092915050565b60006122486000198460080261222a565b1980831691505092915050565b60006122618383612237565b9150826002028217905092915050565b61227a8261187c565b67ffffffffffffffff811115612293576122926116c7565b5b61229d8254611f69565b6122a88282856121e4565b600060209050601f8311600181146122db57600084156122c9578287015190505b6122d38582612255565b86555061233b565b601f1984166122e9866120c5565b60005b82811015612311578489015182556001820191506020850194506020810190506122ec565b8683101561232e578489015161232a601f891682612237565b8355505b6001600288020188555050505b505050505050565b7f537570706c696572206e6f74206c696e6b656420746f20746869732070726f6460008201527f7563742e00000000000000000000000000000000000000000000000000000000602082015250565b600061239f602483611887565b91506123aa82612343565b604082019050919050565b600060208201905081810360008301526123ce81612392565b905091905056fea26469706673582212203a83a0cdc26c1cbb516a4c0e2a1c030b6560e14d4130ab2b0672d54d227ddf5064736f6c63430008130033",
  "immutableReferences": {},
  "source": "// SPDX-License-Identifier: MIT\r\npragma solidity ^0.8.0;\r\n\r\ncontract ProductManagement {\r\n    struct Product {\r\n        address manufacturer;\r\n        address supplier;\r\n        address hospital;\r\n        string manufacturerName;\r\n        string productId;\r\n        string productName;\r\n        string manufactureDate;\r\n        string imagePath;\r\n        string imageHash;\r\n    }\r\n\r\n    // Mappings to store the relationships\r\n    mapping(string => Product) public products;\r\n    mapping(address => string[]) public manufacturerProducts;\r\n    mapping(address => string[]) public supplierProducts;\r\n    mapping(address => address[]) public supplierHospitals;\r\n\r\n    // Events to track changes\r\n    event ProductAdded(address indexed manufacturer, address indexed supplier, string productId);\r\n    event ProductTraceabilityUpdated(address indexed supplier, address indexed hospital, string productId);\r\n\r\n    // Function 1: Manufacturer adds a product with a supplier\r\n    function addProductWithSupplier(\r\n        address manufacturer,\r\n        address supplier,\r\n        string memory manufacturerName,\r\n        string memory productId,\r\n        string memory productName,\r\n        string memory manufactureDate,\r\n        string memory imagePath,\r\n        string memory imageHash\r\n    ) public {\r\n        require(bytes(products[productId].productId).length == 0, \"Product ID already exists.\");\r\n        \r\n        // Create and store the product\r\n        products[productId] = Product({\r\n            manufacturer: manufacturer,\r\n            supplier: supplier,\r\n            hospital: address(0), // Hospital is not assigned yet\r\n            manufacturerName: manufacturerName,\r\n            productId: productId,\r\n            productName: productName,\r\n            manufactureDate: manufactureDate,\r\n            imagePath: imagePath,\r\n            imageHash: imageHash\r\n        });\r\n\r\n        // Link the product to the manufacturer and supplier\r\n        manufacturerProducts[manufacturer].push(productId);\r\n        supplierProducts[supplier].push(productId);\r\n\r\n        emit ProductAdded(manufacturer, supplier, productId);\r\n    }\r\n\r\n    // Function 2: Supplier adds the product to the hospital\r\n    function linkSupplierWithHospital(\r\n        address supplier,\r\n        address hospital,\r\n        string memory productId\r\n    ) public {\r\n        require(bytes(products[productId].productId).length != 0, \"Product does not exist.\");\r\n        require(products[productId].supplier == supplier, \"Supplier not linked to this product.\");\r\n\r\n        // Update the product with the hospital\r\n        products[productId].hospital = hospital;\r\n\r\n        // Link supplier to hospital for traceability\r\n        supplierHospitals[supplier].push(hospital);\r\n\r\n        emit ProductTraceabilityUpdated(supplier, hospital, productId);\r\n    }\r\n\r\n    // Get all products by manufacturer\r\n    function getProductsByManufacturer(address manufacturer) public view returns (string[] memory) {\r\n        return manufacturerProducts[manufacturer];\r\n    }\r\n\r\n    // Get all products by supplier\r\n    function getProductsBySupplier(address supplier) public view returns (string[] memory) {\r\n        return supplierProducts[supplier];\r\n    }\r\n\r\n    // Get all hospitals linked to a supplier\r\n    function getHospitalsBySupplier(address supplier) public view returns (address[] memory) {\r\n        return supplierHospitals[supplier];\r\n    }\r\n\r\n    // Get product details, including manufacturer, supplier, and hospital\r\n    function getProductDetails(string memory productId) public view returns (\r\n        address manufacturer,\r\n        address supplier,\r\n        address hospital,\r\n        string memory productIdOut,\r\n        string memory productName,\r\n        string memory manufactureDate,\r\n        string memory imagePath,\r\n        string memory imageHash\r\n    ) {\r\n        Product memory product = products[productId];\r\n        require(bytes(product.productId).length != 0, \"Product does not exist.\");\r\n        return (\r\n            product.manufacturer,\r\n            product.supplier,\r\n            product.hospital,\r\n            product.productId,\r\n            product.productName,\r\n            product.manufactureDate,\r\n            product.imagePath,\r\n            product.imageHash\r\n        );\r\n    }\r\n}\r\n",
  "sourcePath": "C:\\Users\\Sudheer\\Supplier-Selection-in-Healthcare-using-Blockchain-IT-Project\\contracts\\ProductManagement.sol",
  "compiler": {
    "name": "solc",
    "version": "0.8.19+commit.7dd6d404.Emscripten.clang"
  },
  "schemaVersion": "3.4.16",
  "updatedAt": "2025-01-15T13:52:41.906Z",
  "networkType": "ethereum",
  "devdoc": {
    "kind": "dev",
    "methods": {},
    "version": 1
  },
  "userdoc": {
    "kind": "user",
    "methods": {},
    "version": 1
  }
}