{
  "contractName": "userManagement",
  "abi": [
    {
      "inputs": [
        {
          "internalType": "address",
          "name": "wallet",
          "type": "address"
        },
        {
          "internalType": "string",
          "name": "username",
          "type": "string"
        },
        {
          "internalType": "string",
          "name": "password",
          "type": "string"
        },
        {
          "internalType": "string",
          "name": "role",
          "type": "string"
        },
        {
          "internalType": "string",
          "name": "email",
          "type": "string"
        }
      ],
      "name": "userSignUp",
      "outputs": [],
      "stateMutability": "nonpayable",
      "type": "function"
    },
    {
      "inputs": [],
      "name": "viewAllUsers",
      "outputs": [
        {
          "components": [
            {
              "internalType": "address",
              "name": "_userAddress",
              "type": "address"
            },
            {
              "internalType": "string",
              "name": "_userName",
              "type": "string"
            },
            {
              "internalType": "string",
              "name": "_userPassword",
              "type": "string"
            },
            {
              "internalType": "string",
              "name": "_userRole",
              "type": "string"
            },
            {
              "internalType": "string",
              "name": "_userEmail",
              "type": "string"
            },
            {
              "internalType": "bool",
              "name": "_exist",
              "type": "bool"
            }
          ],
          "internalType": "struct userManagement.User[]",
          "name": "",
          "type": "tuple[]"
        }
      ],
      "stateMutability": "view",
      "type": "function",
      "constant": true
    },
    {
      "inputs": [
        {
          "internalType": "string",
          "name": "username",
          "type": "string"
        }
      ],
      "name": "viewUserByUsername",
      "outputs": [
        {
          "components": [
            {
              "internalType": "address",
              "name": "_userAddress",
              "type": "address"
            },
            {
              "internalType": "string",
              "name": "_userName",
              "type": "string"
            },
            {
              "internalType": "string",
              "name": "_userPassword",
              "type": "string"
            },
            {
              "internalType": "string",
              "name": "_userRole",
              "type": "string"
            },
            {
              "internalType": "string",
              "name": "_userEmail",
              "type": "string"
            },
            {
              "internalType": "bool",
              "name": "_exist",
              "type": "bool"
            }
          ],
          "internalType": "struct userManagement.User",
          "name": "",
          "type": "tuple"
        }
      ],
      "stateMutability": "view",
      "type": "function",
      "constant": true
    },
    {
      "inputs": [
        {
          "internalType": "address",
          "name": "wallet",
          "type": "address"
        }
      ],
      "name": "viewUserByWallet",
      "outputs": [
        {
          "components": [
            {
              "internalType": "address",
              "name": "_userAddress",
              "type": "address"
            },
            {
              "internalType": "string",
              "name": "_userName",
              "type": "string"
            },
            {
              "internalType": "string",
              "name": "_userPassword",
              "type": "string"
            },
            {
              "internalType": "string",
              "name": "_userRole",
              "type": "string"
            },
            {
              "internalType": "string",
              "name": "_userEmail",
              "type": "string"
            },
            {
              "internalType": "bool",
              "name": "_exist",
              "type": "bool"
            }
          ],
          "internalType": "struct userManagement.User",
          "name": "",
          "type": "tuple"
        }
      ],
      "stateMutability": "view",
      "type": "function",
      "constant": true
    },
    {
      "inputs": [
        {
          "internalType": "string",
          "name": "username",
          "type": "string"
        },
        {
          "internalType": "string",
          "name": "password",
          "type": "string"
        }
      ],
      "name": "userLogin",
      "outputs": [
        {
          "internalType": "bool",
          "name": "",
          "type": "bool"
        }
      ],
      "stateMutability": "view",
      "type": "function",
      "constant": true
    }
  ],
  "bytecode": "0x608060405234801561001057600080fd5b50611e3a806100206000396000f3fe608060405234801561001057600080fd5b50600436106100575760003560e01c80635b4a3abe1461005c5780639a66c0d71461008c578063a150fa72146100a8578063ba81636c146100d8578063ec046fc714610108575b600080fd5b6100766004803603810190610071919061125c565b610126565b60405161008391906112ef565b60405180910390f35b6100a660048036038101906100a19190611368565b610239565b005b6100c260048036038101906100bd9190611453565b6105ce565b6040516100cf91906115bb565b60405180910390f35b6100f260048036038101906100ed91906115dd565b61096d565b6040516100ff91906115bb565b60405180910390f35b610110610ccc565b60405161011d9190611786565b60405180910390f35b600060018360405161013891906117e4565b908152602001604051809103902060050160009054906101000a900460ff16610196576040517f08c379a000000000000000000000000000000000000000000000000000000000815260040161018d90611858565b60405180910390fd5b6001836040516101a691906117e4565b90815260200160405180910390206001016040516101c4919061197b565b604051809103902083805190602001200361022e576001836040516101e991906117e4565b9081526020016040518091039020600201604051610207919061197b565b60405180910390208280519060200120036102255760019050610233565b60009050610233565b600090505b92915050565b6000808673ffffffffffffffffffffffffffffffffffffffff1673ffffffffffffffffffffffffffffffffffffffff16815260200190815260200160002060050160009054906101000a900460ff16156102c8576040517f08c379a00000000000000000000000000000000000000000000000000000000081526004016102bf906119de565b60405180910390fd5b6001846040516102d891906117e4565b908152602001604051809103902060050160009054906101000a900460ff1615610337576040517f08c379a000000000000000000000000000000000000000000000000000000000815260040161032e90611a4a565b60405180910390fd5b60006040518060c001604052808773ffffffffffffffffffffffffffffffffffffffff168152602001868152602001858152602001848152602001838152602001600115158152509050806000808873ffffffffffffffffffffffffffffffffffffffff1673ffffffffffffffffffffffffffffffffffffffff16815260200190815260200160002060008201518160000160006101000a81548173ffffffffffffffffffffffffffffffffffffffff021916908373ffffffffffffffffffffffffffffffffffffffff160217905550602082015181600101908161041c9190611c20565b5060408201518160020190816104329190611c20565b5060608201518160030190816104489190611c20565b50608082015181600401908161045e9190611c20565b5060a08201518160050160006101000a81548160ff0219169083151502179055509050508060018660405161049391906117e4565b908152602001604051809103902060008201518160000160006101000a81548173ffffffffffffffffffffffffffffffffffffffff021916908373ffffffffffffffffffffffffffffffffffffffff16021790555060208201518160010190816104fd9190611c20565b5060408201518160020190816105139190611c20565b5060608201518160030190816105299190611c20565b50608082015181600401908161053f9190611c20565b5060a08201518160050160006101000a81548160ff0219169083151502179055509050506002869080600181540180825580915050600190039060005260206000200160009091909190916101000a81548173ffffffffffffffffffffffffffffffffffffffff021916908373ffffffffffffffffffffffffffffffffffffffff160217905550505050505050565b6105d66110b4565b6000808373ffffffffffffffffffffffffffffffffffffffff1673ffffffffffffffffffffffffffffffffffffffff16815260200190815260200160002060050160009054906101000a900460ff16610664576040517f08c379a000000000000000000000000000000000000000000000000000000000815260040161065b90611d3e565b60405180910390fd5b6000808373ffffffffffffffffffffffffffffffffffffffff1673ffffffffffffffffffffffffffffffffffffffff1681526020019081526020016000206040518060c00160405290816000820160009054906101000a900473ffffffffffffffffffffffffffffffffffffffff1673ffffffffffffffffffffffffffffffffffffffff1673ffffffffffffffffffffffffffffffffffffffff168152602001600182018054610713906118a7565b80601f016020809104026020016040519081016040528092919081815260200182805461073f906118a7565b801561078c5780601f106107615761010080835404028352916020019161078c565b820191906000526020600020905b81548152906001019060200180831161076f57829003601f168201915b505050505081526020016002820180546107a5906118a7565b80601f01602080910402602001604051908101604052809291908181526020018280546107d1906118a7565b801561081e5780601f106107f35761010080835404028352916020019161081e565b820191906000526020600020905b81548152906001019060200180831161080157829003601f168201915b50505050508152602001600382018054610837906118a7565b80601f0160208091040260200160405190810160405280929190818152602001828054610863906118a7565b80156108b05780601f10610885576101008083540402835291602001916108b0565b820191906000526020600020905b81548152906001019060200180831161089357829003601f168201915b505050505081526020016004820180546108c9906118a7565b80601f01602080910402602001604051908101604052809291908181526020018280546108f5906118a7565b80156109425780601f1061091757610100808354040283529160200191610942565b820191906000526020600020905b81548152906001019060200180831161092557829003601f168201915b505050505081526020016005820160009054906101000a900460ff1615151515815250509050919050565b6109756110b4565b60018260405161098591906117e4565b908152602001604051809103902060050160009054906101000a900460ff166109e3576040517f08c379a00000000000000000000000000000000000000000000000000000000081526004016109da90611858565b60405180910390fd5b6001826040516109f391906117e4565b90815260200160405180910390206040518060c00160405290816000820160009054906101000a900473ffffffffffffffffffffffffffffffffffffffff1673ffffffffffffffffffffffffffffffffffffffff1673ffffffffffffffffffffffffffffffffffffffff168152602001600182018054610a72906118a7565b80601f0160208091040260200160405190810160405280929190818152602001828054610a9e906118a7565b8015610aeb5780601f10610ac057610100808354040283529160200191610aeb565b820191906000526020600020905b815481529060010190602001808311610ace57829003601f168201915b50505050508152602001600282018054610b04906118a7565b80601f0160208091040260200160405190810160405280929190818152602001828054610b30906118a7565b8015610b7d5780601f10610b5257610100808354040283529160200191610b7d565b820191906000526020600020905b815481529060010190602001808311610b6057829003601f168201915b50505050508152602001600382018054610b96906118a7565b80601f0160208091040260200160405190810160405280929190818152602001828054610bc2906118a7565b8015610c0f5780601f10610be457610100808354040283529160200191610c0f565b820191906000526020600020905b815481529060010190602001808311610bf257829003601f168201915b50505050508152602001600482018054610c28906118a7565b80601f0160208091040260200160405190810160405280929190818152602001828054610c54906118a7565b8015610ca15780601f10610c7657610100808354040283529160200191610ca1565b820191906000526020600020905b815481529060010190602001808311610c8457829003601f168201915b505050505081526020016005820160009054906101000a900460ff1615151515815250509050919050565b6060600060028054905067ffffffffffffffff811115610cef57610cee611131565b5b604051908082528060200260200182016040528015610d2857816020015b610d156110b4565b815260200190600190039081610d0d5790505b50905060005b6002805490508110156110ac5760008060028381548110610d5257610d51611d5e565b5b9060005260206000200160009054906101000a900473ffffffffffffffffffffffffffffffffffffffff1673ffffffffffffffffffffffffffffffffffffffff1673ffffffffffffffffffffffffffffffffffffffff1681526020019081526020016000206040518060c00160405290816000820160009054906101000a900473ffffffffffffffffffffffffffffffffffffffff1673ffffffffffffffffffffffffffffffffffffffff1673ffffffffffffffffffffffffffffffffffffffff168152602001600182018054610e28906118a7565b80601f0160208091040260200160405190810160405280929190818152602001828054610e54906118a7565b8015610ea15780601f10610e7657610100808354040283529160200191610ea1565b820191906000526020600020905b815481529060010190602001808311610e8457829003601f168201915b50505050508152602001600282018054610eba906118a7565b80601f0160208091040260200160405190810160405280929190818152602001828054610ee6906118a7565b8015610f335780601f10610f0857610100808354040283529160200191610f33565b820191906000526020600020905b815481529060010190602001808311610f1657829003601f168201915b50505050508152602001600382018054610f4c906118a7565b80601f0160208091040260200160405190810160405280929190818152602001828054610f78906118a7565b8015610fc55780601f10610f9a57610100808354040283529160200191610fc5565b820191906000526020600020905b815481529060010190602001808311610fa857829003601f168201915b50505050508152602001600482018054610fde906118a7565b80601f016020809104026020016040519081016040528092919081815260200182805461100a906118a7565b80156110575780601f1061102c57610100808354040283529160200191611057565b820191906000526020600020905b81548152906001019060200180831161103a57829003601f168201915b505050505081526020016005820160009054906101000a900460ff16151515158152505082828151811061108e5761108d611d5e565b5b602002602001018190525080806110a490611dbc565b915050610d2e565b508091505090565b6040518060c00160405280600073ffffffffffffffffffffffffffffffffffffffff168152602001606081526020016060815260200160608152602001606081526020016000151581525090565b6000604051905090565b600080fd5b600080fd5b600080fd5b600080fd5b6000601f19601f8301169050919050565b7f4e487b7100000000000000000000000000000000000000000000000000000000600052604160045260246000fd5b61116982611120565b810181811067ffffffffffffffff8211171561118857611187611131565b5b80604052505050565b600061119b611102565b90506111a78282611160565b919050565b600067ffffffffffffffff8211156111c7576111c6611131565b5b6111d082611120565b9050602081019050919050565b82818337600083830152505050565b60006111ff6111fa846111ac565b611191565b90508281526020810184848401111561121b5761121a61111b565b5b6112268482856111dd565b509392505050565b600082601f83011261124357611242611116565b5b81356112538482602086016111ec565b91505092915050565b600080604083850312156112735761127261110c565b5b600083013567ffffffffffffffff81111561129157611290611111565b5b61129d8582860161122e565b925050602083013567ffffffffffffffff8111156112be576112bd611111565b5b6112ca8582860161122e565b9150509250929050565b60008115159050919050565b6112e9816112d4565b82525050565b600060208201905061130460008301846112e0565b92915050565b600073ffffffffffffffffffffffffffffffffffffffff82169050919050565b60006113358261130a565b9050919050565b6113458161132a565b811461135057600080fd5b50565b6000813590506113628161133c565b92915050565b600080600080600060a086880312156113845761138361110c565b5b600061139288828901611353565b955050602086013567ffffffffffffffff8111156113b3576113b2611111565b5b6113bf8882890161122e565b945050604086013567ffffffffffffffff8111156113e0576113df611111565b5b6113ec8882890161122e565b935050606086013567ffffffffffffffff81111561140d5761140c611111565b5b6114198882890161122e565b925050608086013567ffffffffffffffff81111561143a57611439611111565b5b6114468882890161122e565b9150509295509295909350565b6000602082840312156114695761146861110c565b5b600061147784828501611353565b91505092915050565b6114898161132a565b82525050565b600081519050919050565b600082825260208201905092915050565b60005b838110156114c95780820151818401526020810190506114ae565b60008484015250505050565b60006114e08261148f565b6114ea818561149a565b93506114fa8185602086016114ab565b61150381611120565b840191505092915050565b611517816112d4565b82525050565b600060c0830160008301516115356000860182611480565b506020830151848203602086015261154d82826114d5565b9150506040830151848203604086015261156782826114d5565b9150506060830151848203606086015261158182826114d5565b9150506080830151848203608086015261159b82826114d5565b91505060a08301516115b060a086018261150e565b508091505092915050565b600060208201905081810360008301526115d5818461151d565b905092915050565b6000602082840312156115f3576115f261110c565b5b600082013567ffffffffffffffff81111561161157611610611111565b5b61161d8482850161122e565b91505092915050565b600081519050919050565b600082825260208201905092915050565b6000819050602082019050919050565b600060c08301600083015161166a6000860182611480565b506020830151848203602086015261168282826114d5565b9150506040830151848203604086015261169c82826114d5565b915050606083015184820360608601526116b682826114d5565b915050608083015184820360808601526116d082826114d5565b91505060a08301516116e560a086018261150e565b508091505092915050565b60006116fc8383611652565b905092915050565b6000602082019050919050565b600061171c82611626565b6117268185611631565b93508360208202850161173885611642565b8060005b85811015611774578484038952815161175585826116f0565b945061176083611704565b925060208a0199505060018101905061173c565b50829750879550505050505092915050565b600060208201905081810360008301526117a08184611711565b905092915050565b600081905092915050565b60006117be8261148f565b6117c881856117a8565b93506117d88185602086016114ab565b80840191505092915050565b60006117f082846117b3565b915081905092915050565b600082825260208201905092915050565b7f4e6f206163636f756e742077697468207468617420757365726e616d65000000600082015250565b6000611842601d836117fb565b915061184d8261180c565b602082019050919050565b6000602082019050818103600083015261187181611835565b9050919050565b7f4e487b7100000000000000000000000000000000000000000000000000000000600052602260045260246000fd5b600060028204905060018216806118bf57607f821691505b6020821081036118d2576118d1611878565b5b50919050565b600081905092915050565b60008190508160005260206000209050919050565b60008154611905816118a7565b61190f81866118d8565b9450600182166000811461192a576001811461193f57611972565b60ff1983168652811515820286019350611972565b611948856118e3565b60005b8381101561196a5781548189015260018201915060208101905061194b565b838801955050505b50505092915050565b600061198782846118f8565b915081905092915050565b7f416c726561647920657869737400000000000000000000000000000000000000600082015250565b60006119c8600d836117fb565b91506119d382611992565b602082019050919050565b600060208201905081810360008301526119f7816119bb565b9050919050565b7f416c726561647920757365726e616d652074616b656e00000000000000000000600082015250565b6000611a346016836117fb565b9150611a3f826119fe565b602082019050919050565b60006020820190508181036000830152611a6381611a27565b9050919050565b60008190508160005260206000209050919050565b60006020601f8301049050919050565b600082821b905092915050565b600060088302611acc7fffffffffffffffffffffffffffffffffffffffffffffffffffffffffffffffff82611a8f565b611ad68683611a8f565b95508019841693508086168417925050509392505050565b6000819050919050565b6000819050919050565b6000611b1d611b18611b1384611aee565b611af8565b611aee565b9050919050565b6000819050919050565b611b3783611b02565b611b4b611b4382611b24565b848454611a9c565b825550505050565b600090565b611b60611b53565b611b6b818484611b2e565b505050565b5b81811015611b8f57611b84600082611b58565b600181019050611b71565b5050565b601f821115611bd457611ba581611a6a565b611bae84611a7f565b81016020851015611bbd578190505b611bd1611bc985611a7f565b830182611b70565b50505b505050565b600082821c905092915050565b6000611bf760001984600802611bd9565b1980831691505092915050565b6000611c108383611be6565b9150826002028217905092915050565b611c298261148f565b67ffffffffffffffff811115611c4257611c41611131565b5b611c4c82546118a7565b611c57828285611b93565b600060209050601f831160018114611c8a5760008415611c78578287015190505b611c828582611c04565b865550611cea565b601f198416611c9886611a6a565b60005b82811015611cc057848901518255600182019150602085019450602081019050611c9b565b86831015611cdd5784890151611cd9601f891682611be6565b8355505b6001600288020188555050505b505050505050565b7f4e6f206163636f756e74207769746820746861742077616c6c65740000000000600082015250565b6000611d28601b836117fb565b9150611d3382611cf2565b602082019050919050565b60006020820190508181036000830152611d5781611d1b565b9050919050565b7f4e487b7100000000000000000000000000000000000000000000000000000000600052603260045260246000fd5b7f4e487b7100000000000000000000000000000000000000000000000000000000600052601160045260246000fd5b6000611dc782611aee565b91507fffffffffffffffffffffffffffffffffffffffffffffffffffffffffffffffff8203611df957611df8611d8d565b5b60018201905091905056fea26469706673582212206e58abbba8f932bf598c4444c202fe0920896602c210e7be19f3bca04c3ba6ae64736f6c63430008130033",
  "immutableReferences": {},
  "source": "// SPDX-License-Identifier: MIT\r\npragma solidity >=0.4.22 <0.9.0;\r\n\r\ncontract userManagement {\r\n  struct User{\r\n    address _userAddress; // Mandatory\r\n    string _userName;\r\n    string _userPassword;\r\n    string _userRole; // Mandatory\r\n    string _userEmail;\r\n    bool _exist;\r\n  }\r\n\r\n  mapping(address=>User) users; // user wallet address is pointing a structure of user -> users[_users[0]]\r\n  mapping(string=>User) usernames; // _usernames[username]\r\n  address[] userAddresses; // user dynamic array of wallet addresses, _users[0], _users[1]\r\n\r\n\r\n  // It will create an account of user\r\n  function userSignUp(address wallet,string memory username,string memory password,string memory role,string memory email) public {\r\n    require(!users[wallet]._exist,\"Already exist\"); // require condition should be always false\r\n    require(!usernames[username]._exist,\"Already username taken\"); \r\n\r\n    // Structure Member\r\n    User memory new_user=User(wallet,username,password,role,email,true);\r\n    users[wallet]=new_user;\r\n    usernames[username]=new_user; // new_user is a structure of records\r\n    userAddresses.push(wallet); // it will push wallet address\r\n  }\r\n\r\n  // It will return all the registered Users\r\n  function viewAllUsers() public view returns(User[] memory){\r\n    User[] memory _userArray = new User[] (userAddresses.length); // 100 chairs (empty)\r\n    // empty structures create -> the length of userAddress (1)\r\n\r\n    for (uint256 i = 0; i < userAddresses.length; i++) { // 0<1 // 100 students one-by-one seating\r\n            _userArray[i] = users[userAddresses[i]]; // users[wallet]\r\n    }\r\n\r\n    return _userArray; \r\n  }\r\n\r\n  // It will return only one record of user based on username\r\n  function viewUserByUsername(string memory username) public view returns(User memory) {\r\n    require(usernames[username]._exist,\"No account with that username\"); // true\r\n    return usernames[username];\r\n  }\r\n\r\n  // It will return only one record of user based on wallet\r\n  function viewUserByWallet(address wallet) public view returns(User memory) {\r\n    require(users[wallet]._exist,\"No account with that wallet\");\r\n    return users[wallet];\r\n  }\r\n\r\n  // It will validate the login details of user\r\n  function userLogin(string memory username,string memory password) public view returns(bool){\r\n    require(usernames[username]._exist,\"No account with that username\"); \r\n\r\n    if(keccak256(bytes(username))==keccak256(bytes(usernames[username]._userName))){\r\n      if(keccak256(bytes(password))==keccak256(bytes(usernames[username]._userPassword))){\r\n        return true;\r\n      } else {\r\n        return false;\r\n      }\r\n    } else {\r\n      return false;\r\n    }\r\n  }\r\n}\r\n",
  "sourcePath": "C:\\Users\\Sudheer\\Supplier-Selection-in-Healthcare-using-Blockchain-IT-Project\\contracts\\userManagement.sol",
  "compiler": {
    "name": "solc",
    "version": "0.8.19+commit.7dd6d404.Emscripten.clang"
  },
  "schemaVersion": "3.4.16",
  "updatedAt": "2025-01-15T07:32:57.551Z",
  "networkType": "ethereum",
  "devdoc": {
    "kind": "dev",
    "methods": {},
    "version": 1
  },
  "userdoc": {
    "kind": "user",
    "methods": {},
    "version": 1
  }
}