{
  "contractName": "userManagement",
  "abi": [
    {
      "inputs": [
        {
          "internalType": "address",
          "name": "wallet",
          "type": "address"
        },
        {
          "internalType": "string",
          "name": "username",
          "type": "string"
        },
        {
          "internalType": "string",
          "name": "password",
          "type": "string"
        },
        {
          "internalType": "string",
          "name": "role",
          "type": "string"
        },
        {
          "internalType": "string",
          "name": "email",
          "type": "string"
        }
      ],
      "name": "userSignUp",
      "outputs": [],
      "stateMutability": "nonpayable",
      "type": "function"
    },
    {
      "inputs": [],
      "name": "viewAllUsers",
      "outputs": [
        {
          "components": [
            {
              "internalType": "address",
              "name": "_userAddress",
              "type": "address"
            },
            {
              "internalType": "string",
              "name": "_userName",
              "type": "string"
            },
            {
              "internalType": "string",
              "name": "_userPassword",
              "type": "string"
            },
            {
              "internalType": "string",
              "name": "_userRole",
              "type": "string"
            },
            {
              "internalType": "string",
              "name": "_userEmail",
              "type": "string"
            },
            {
              "internalType": "bool",
              "name": "_exist",
              "type": "bool"
            }
          ],
          "internalType": "struct userManagement.User[]",
          "name": "",
          "type": "tuple[]"
        }
      ],
      "stateMutability": "view",
      "type": "function",
      "constant": true
    },
    {
      "inputs": [
        {
          "internalType": "string",
          "name": "username",
          "type": "string"
        }
      ],
      "name": "viewUserByUsername",
      "outputs": [
        {
          "components": [
            {
              "internalType": "address",
              "name": "_userAddress",
              "type": "address"
            },
            {
              "internalType": "string",
              "name": "_userName",
              "type": "string"
            },
            {
              "internalType": "string",
              "name": "_userPassword",
              "type": "string"
            },
            {
              "internalType": "string",
              "name": "_userRole",
              "type": "string"
            },
            {
              "internalType": "string",
              "name": "_userEmail",
              "type": "string"
            },
            {
              "internalType": "bool",
              "name": "_exist",
              "type": "bool"
            }
          ],
          "internalType": "struct userManagement.User",
          "name": "",
          "type": "tuple"
        }
      ],
      "stateMutability": "view",
      "type": "function",
      "constant": true
    },
    {
      "inputs": [
        {
          "internalType": "address",
          "name": "wallet",
          "type": "address"
        }
      ],
      "name": "viewUserByWallet",
      "outputs": [
        {
          "components": [
            {
              "internalType": "address",
              "name": "_userAddress",
              "type": "address"
            },
            {
              "internalType": "string",
              "name": "_userName",
              "type": "string"
            },
            {
              "internalType": "string",
              "name": "_userPassword",
              "type": "string"
            },
            {
              "internalType": "string",
              "name": "_userRole",
              "type": "string"
            },
            {
              "internalType": "string",
              "name": "_userEmail",
              "type": "string"
            },
            {
              "internalType": "bool",
              "name": "_exist",
              "type": "bool"
            }
          ],
          "internalType": "struct userManagement.User",
          "name": "",
          "type": "tuple"
        }
      ],
      "stateMutability": "view",
      "type": "function",
      "constant": true
    },
    {
      "inputs": [
        {
          "internalType": "string",
          "name": "username",
          "type": "string"
        },
        {
          "internalType": "string",
          "name": "password",
          "type": "string"
        }
      ],
      "name": "userLogin",
      "outputs": [
        {
          "internalType": "bool",
          "name": "",
          "type": "bool"
        }
      ],
      "stateMutability": "view",
      "type": "function",
      "constant": true
    },
    {
      "inputs": [
        {
          "internalType": "string",
          "name": "role",
          "type": "string"
        }
      ],
      "name": "viewUsersByRole",
      "outputs": [
        {
          "components": [
            {
              "internalType": "address",
              "name": "_userAddress",
              "type": "address"
            },
            {
              "internalType": "string",
              "name": "_userName",
              "type": "string"
            },
            {
              "internalType": "string",
              "name": "_userPassword",
              "type": "string"
            },
            {
              "internalType": "string",
              "name": "_userRole",
              "type": "string"
            },
            {
              "internalType": "string",
              "name": "_userEmail",
              "type": "string"
            },
            {
              "internalType": "bool",
              "name": "_exist",
              "type": "bool"
            }
          ],
          "internalType": "struct userManagement.User[]",
          "name": "",
          "type": "tuple[]"
        }
      ],
      "stateMutability": "view",
      "type": "function",
      "constant": true
    }
  ],
  "bytecode": "0x608060405234801561001057600080fd5b506123e2806100206000396000f3fe608060405234801561001057600080fd5b50600436106100625760003560e01c80635b4a3abe146100675780639a66c0d714610097578063a150fa72146100b3578063ba81636c146100e3578063d0c3bfb614610113578063ec046fc714610143575b600080fd5b610081600480360381019061007c9190611804565b610161565b60405161008e9190611897565b60405180910390f35b6100b160048036038101906100ac9190611910565b610274565b005b6100cd60048036038101906100c891906119fb565b610609565b6040516100da9190611b63565b60405180910390f35b6100fd60048036038101906100f89190611b85565b6109a8565b60405161010a9190611b63565b60405180910390f35b61012d60048036038101906101289190611b85565b610d07565b60405161013a9190611d2e565b60405180910390f35b61014b611274565b6040516101589190611d2e565b60405180910390f35b60006001836040516101739190611d8c565b908152602001604051809103902060050160009054906101000a900460ff166101d1576040517f08c379a00000000000000000000000000000000000000000000000000000000081526004016101c890611e00565b60405180910390fd5b6001836040516101e19190611d8c565b90815260200160405180910390206001016040516101ff9190611f23565b6040518091039020838051906020012003610269576001836040516102249190611d8c565b90815260200160405180910390206002016040516102429190611f23565b6040518091039020828051906020012003610260576001905061026e565b6000905061026e565b600090505b92915050565b6000808673ffffffffffffffffffffffffffffffffffffffff1673ffffffffffffffffffffffffffffffffffffffff16815260200190815260200160002060050160009054906101000a900460ff1615610303576040517f08c379a00000000000000000000000000000000000000000000000000000000081526004016102fa90611f86565b60405180910390fd5b6001846040516103139190611d8c565b908152602001604051809103902060050160009054906101000a900460ff1615610372576040517f08c379a000000000000000000000000000000000000000000000000000000000815260040161036990611ff2565b60405180910390fd5b60006040518060c001604052808773ffffffffffffffffffffffffffffffffffffffff168152602001868152602001858152602001848152602001838152602001600115158152509050806000808873ffffffffffffffffffffffffffffffffffffffff1673ffffffffffffffffffffffffffffffffffffffff16815260200190815260200160002060008201518160000160006101000a81548173ffffffffffffffffffffffffffffffffffffffff021916908373ffffffffffffffffffffffffffffffffffffffff160217905550602082015181600101908161045791906121c8565b50604082015181600201908161046d91906121c8565b50606082015181600301908161048391906121c8565b50608082015181600401908161049991906121c8565b5060a08201518160050160006101000a81548160ff021916908315150217905550905050806001866040516104ce9190611d8c565b908152602001604051809103902060008201518160000160006101000a81548173ffffffffffffffffffffffffffffffffffffffff021916908373ffffffffffffffffffffffffffffffffffffffff160217905550602082015181600101908161053891906121c8565b50604082015181600201908161054e91906121c8565b50606082015181600301908161056491906121c8565b50608082015181600401908161057a91906121c8565b5060a08201518160050160006101000a81548160ff0219169083151502179055509050506002869080600181540180825580915050600190039060005260206000200160009091909190916101000a81548173ffffffffffffffffffffffffffffffffffffffff021916908373ffffffffffffffffffffffffffffffffffffffff160217905550505050505050565b61061161165c565b6000808373ffffffffffffffffffffffffffffffffffffffff1673ffffffffffffffffffffffffffffffffffffffff16815260200190815260200160002060050160009054906101000a900460ff1661069f576040517f08c379a0000000000000000000000000000000000000000000000000000000008152600401610696906122e6565b60405180910390fd5b6000808373ffffffffffffffffffffffffffffffffffffffff1673ffffffffffffffffffffffffffffffffffffffff1681526020019081526020016000206040518060c00160405290816000820160009054906101000a900473ffffffffffffffffffffffffffffffffffffffff1673ffffffffffffffffffffffffffffffffffffffff1673ffffffffffffffffffffffffffffffffffffffff16815260200160018201805461074e90611e4f565b80601f016020809104026020016040519081016040528092919081815260200182805461077a90611e4f565b80156107c75780601f1061079c576101008083540402835291602001916107c7565b820191906000526020600020905b8154815290600101906020018083116107aa57829003601f168201915b505050505081526020016002820180546107e090611e4f565b80601f016020809104026020016040519081016040528092919081815260200182805461080c90611e4f565b80156108595780601f1061082e57610100808354040283529160200191610859565b820191906000526020600020905b81548152906001019060200180831161083c57829003601f168201915b5050505050815260200160038201805461087290611e4f565b80601f016020809104026020016040519081016040528092919081815260200182805461089e90611e4f565b80156108eb5780601f106108c0576101008083540402835291602001916108eb565b820191906000526020600020905b8154815290600101906020018083116108ce57829003601f168201915b5050505050815260200160048201805461090490611e4f565b80601f016020809104026020016040519081016040528092919081815260200182805461093090611e4f565b801561097d5780601f106109525761010080835404028352916020019161097d565b820191906000526020600020905b81548152906001019060200180831161096057829003601f168201915b505050505081526020016005820160009054906101000a900460ff1615151515815250509050919050565b6109b061165c565b6001826040516109c09190611d8c565b908152602001604051809103902060050160009054906101000a900460ff16610a1e576040517f08c379a0000000000000000000000000000000000000000000000000000000008152600401610a1590611e00565b60405180910390fd5b600182604051610a2e9190611d8c565b90815260200160405180910390206040518060c00160405290816000820160009054906101000a900473ffffffffffffffffffffffffffffffffffffffff1673ffffffffffffffffffffffffffffffffffffffff1673ffffffffffffffffffffffffffffffffffffffff168152602001600182018054610aad90611e4f565b80601f0160208091040260200160405190810160405280929190818152602001828054610ad990611e4f565b8015610b265780601f10610afb57610100808354040283529160200191610b26565b820191906000526020600020905b815481529060010190602001808311610b0957829003601f168201915b50505050508152602001600282018054610b3f90611e4f565b80601f0160208091040260200160405190810160405280929190818152602001828054610b6b90611e4f565b8015610bb85780601f10610b8d57610100808354040283529160200191610bb8565b820191906000526020600020905b815481529060010190602001808311610b9b57829003601f168201915b50505050508152602001600382018054610bd190611e4f565b80601f0160208091040260200160405190810160405280929190818152602001828054610bfd90611e4f565b8015610c4a5780601f10610c1f57610100808354040283529160200191610c4a565b820191906000526020600020905b815481529060010190602001808311610c2d57829003601f168201915b50505050508152602001600482018054610c6390611e4f565b80601f0160208091040260200160405190810160405280929190818152602001828054610c8f90611e4f565b8015610cdc5780601f10610cb157610100808354040283529160200191610cdc565b820191906000526020600020905b815481529060010190602001808311610cbf57829003601f168201915b505050505081526020016005820160009054906101000a900460ff1615151515815250509050919050565b60606000805b600280549050811015610ddd57838051906020012060008060028481548110610d3957610d38612306565b5b9060005260206000200160009054906101000a900473ffffffffffffffffffffffffffffffffffffffff1673ffffffffffffffffffffffffffffffffffffffff1673ffffffffffffffffffffffffffffffffffffffff168152602001908152602001600020600301604051610dae9190611f23565b604051809103902003610dca578180610dc690612364565b9250505b8080610dd590612364565b915050610d0d565b5060008167ffffffffffffffff811115610dfa57610df96116d9565b5b604051908082528060200260200182016040528015610e3357816020015b610e2061165c565b815260200190600190039081610e185790505b5090506000805b60028054905081101561126857858051906020012060008060028481548110610e6657610e65612306565b5b9060005260206000200160009054906101000a900473ffffffffffffffffffffffffffffffffffffffff1673ffffffffffffffffffffffffffffffffffffffff1673ffffffffffffffffffffffffffffffffffffffff168152602001908152602001600020600301604051610edb9190611f23565b6040518091039020036112555760008060028381548110610eff57610efe612306565b5b9060005260206000200160009054906101000a900473ffffffffffffffffffffffffffffffffffffffff1673ffffffffffffffffffffffffffffffffffffffff1673ffffffffffffffffffffffffffffffffffffffff1681526020019081526020016000206040518060c00160405290816000820160009054906101000a900473ffffffffffffffffffffffffffffffffffffffff1673ffffffffffffffffffffffffffffffffffffffff1673ffffffffffffffffffffffffffffffffffffffff168152602001600182018054610fd590611e4f565b80601f016020809104026020016040519081016040528092919081815260200182805461100190611e4f565b801561104e5780601f106110235761010080835404028352916020019161104e565b820191906000526020600020905b81548152906001019060200180831161103157829003601f168201915b5050505050815260200160028201805461106790611e4f565b80601f016020809104026020016040519081016040528092919081815260200182805461109390611e4f565b80156110e05780601f106110b5576101008083540402835291602001916110e0565b820191906000526020600020905b8154815290600101906020018083116110c357829003601f168201915b505050505081526020016003820180546110f990611e4f565b80601f016020809104026020016040519081016040528092919081815260200182805461112590611e4f565b80156111725780601f1061114757610100808354040283529160200191611172565b820191906000526020600020905b81548152906001019060200180831161115557829003601f168201915b5050505050815260200160048201805461118b90611e4f565b80601f01602080910402602001604051908101604052809291908181526020018280546111b790611e4f565b80156112045780601f106111d957610100808354040283529160200191611204565b820191906000526020600020905b8154815290600101906020018083116111e757829003601f168201915b505050505081526020016005820160009054906101000a900460ff16151515158152505083838151811061123b5761123a612306565b5b6020026020010181905250818061125190612364565b9250505b808061126090612364565b915050610e3a565b50819350505050919050565b6060600060028054905067ffffffffffffffff811115611297576112966116d9565b5b6040519080825280602002602001820160405280156112d057816020015b6112bd61165c565b8152602001906001900390816112b55790505b50905060005b60028054905081101561165457600080600283815481106112fa576112f9612306565b5b9060005260206000200160009054906101000a900473ffffffffffffffffffffffffffffffffffffffff1673ffffffffffffffffffffffffffffffffffffffff1673ffffffffffffffffffffffffffffffffffffffff1681526020019081526020016000206040518060c00160405290816000820160009054906101000a900473ffffffffffffffffffffffffffffffffffffffff1673ffffffffffffffffffffffffffffffffffffffff1673ffffffffffffffffffffffffffffffffffffffff1681526020016001820180546113d090611e4f565b80601f01602080910402602001604051908101604052809291908181526020018280546113fc90611e4f565b80156114495780601f1061141e57610100808354040283529160200191611449565b820191906000526020600020905b81548152906001019060200180831161142c57829003601f168201915b5050505050815260200160028201805461146290611e4f565b80601f016020809104026020016040519081016040528092919081815260200182805461148e90611e4f565b80156114db5780601f106114b0576101008083540402835291602001916114db565b820191906000526020600020905b8154815290600101906020018083116114be57829003601f168201915b505050505081526020016003820180546114f490611e4f565b80601f016020809104026020016040519081016040528092919081815260200182805461152090611e4f565b801561156d5780601f106115425761010080835404028352916020019161156d565b820191906000526020600020905b81548152906001019060200180831161155057829003601f168201915b5050505050815260200160048201805461158690611e4f565b80601f01602080910402602001604051908101604052809291908181526020018280546115b290611e4f565b80156115ff5780601f106115d4576101008083540402835291602001916115ff565b820191906000526020600020905b8154815290600101906020018083116115e257829003601f168201915b505050505081526020016005820160009054906101000a900460ff16151515158152505082828151811061163657611635612306565b5b6020026020010181905250808061164c90612364565b9150506112d6565b508091505090565b6040518060c00160405280600073ffffffffffffffffffffffffffffffffffffffff168152602001606081526020016060815260200160608152602001606081526020016000151581525090565b6000604051905090565b600080fd5b600080fd5b600080fd5b600080fd5b6000601f19601f8301169050919050565b7f4e487b7100000000000000000000000000000000000000000000000000000000600052604160045260246000fd5b611711826116c8565b810181811067ffffffffffffffff821117156117305761172f6116d9565b5b80604052505050565b60006117436116aa565b905061174f8282611708565b919050565b600067ffffffffffffffff82111561176f5761176e6116d9565b5b611778826116c8565b9050602081019050919050565b82818337600083830152505050565b60006117a76117a284611754565b611739565b9050828152602081018484840111156117c3576117c26116c3565b5b6117ce848285611785565b509392505050565b600082601f8301126117eb576117ea6116be565b5b81356117fb848260208601611794565b91505092915050565b6000806040838503121561181b5761181a6116b4565b5b600083013567ffffffffffffffff811115611839576118386116b9565b5b611845858286016117d6565b925050602083013567ffffffffffffffff811115611866576118656116b9565b5b611872858286016117d6565b9150509250929050565b60008115159050919050565b6118918161187c565b82525050565b60006020820190506118ac6000830184611888565b92915050565b600073ffffffffffffffffffffffffffffffffffffffff82169050919050565b60006118dd826118b2565b9050919050565b6118ed816118d2565b81146118f857600080fd5b50565b60008135905061190a816118e4565b92915050565b600080600080600060a0868803121561192c5761192b6116b4565b5b600061193a888289016118fb565b955050602086013567ffffffffffffffff81111561195b5761195a6116b9565b5b611967888289016117d6565b945050604086013567ffffffffffffffff811115611988576119876116b9565b5b611994888289016117d6565b935050606086013567ffffffffffffffff8111156119b5576119b46116b9565b5b6119c1888289016117d6565b925050608086013567ffffffffffffffff8111156119e2576119e16116b9565b5b6119ee888289016117d6565b9150509295509295909350565b600060208284031215611a1157611a106116b4565b5b6000611a1f848285016118fb565b91505092915050565b611a31816118d2565b82525050565b600081519050919050565b600082825260208201905092915050565b60005b83811015611a71578082015181840152602081019050611a56565b60008484015250505050565b6000611a8882611a37565b611a928185611a42565b9350611aa2818560208601611a53565b611aab816116c8565b840191505092915050565b611abf8161187c565b82525050565b600060c083016000830151611add6000860182611a28565b5060208301518482036020860152611af58282611a7d565b91505060408301518482036040860152611b0f8282611a7d565b91505060608301518482036060860152611b298282611a7d565b91505060808301518482036080860152611b438282611a7d565b91505060a0830151611b5860a0860182611ab6565b508091505092915050565b60006020820190508181036000830152611b7d8184611ac5565b905092915050565b600060208284031215611b9b57611b9a6116b4565b5b600082013567ffffffffffffffff811115611bb957611bb86116b9565b5b611bc5848285016117d6565b91505092915050565b600081519050919050565b600082825260208201905092915050565b6000819050602082019050919050565b600060c083016000830151611c126000860182611a28565b5060208301518482036020860152611c2a8282611a7d565b91505060408301518482036040860152611c448282611a7d565b91505060608301518482036060860152611c5e8282611a7d565b91505060808301518482036080860152611c788282611a7d565b91505060a0830151611c8d60a0860182611ab6565b508091505092915050565b6000611ca48383611bfa565b905092915050565b6000602082019050919050565b6000611cc482611bce565b611cce8185611bd9565b935083602082028501611ce085611bea565b8060005b85811015611d1c5784840389528151611cfd8582611c98565b9450611d0883611cac565b925060208a01995050600181019050611ce4565b50829750879550505050505092915050565b60006020820190508181036000830152611d488184611cb9565b905092915050565b600081905092915050565b6000611d6682611a37565b611d708185611d50565b9350611d80818560208601611a53565b80840191505092915050565b6000611d988284611d5b565b915081905092915050565b600082825260208201905092915050565b7f4e6f206163636f756e742077697468207468617420757365726e616d65000000600082015250565b6000611dea601d83611da3565b9150611df582611db4565b602082019050919050565b60006020820190508181036000830152611e1981611ddd565b9050919050565b7f4e487b7100000000000000000000000000000000000000000000000000000000600052602260045260246000fd5b60006002820490506001821680611e6757607f821691505b602082108103611e7a57611e79611e20565b5b50919050565b600081905092915050565b60008190508160005260206000209050919050565b60008154611ead81611e4f565b611eb78186611e80565b94506001821660008114611ed25760018114611ee757611f1a565b60ff1983168652811515820286019350611f1a565b611ef085611e8b565b60005b83811015611f1257815481890152600182019150602081019050611ef3565b838801955050505b50505092915050565b6000611f2f8284611ea0565b915081905092915050565b7f416c726561647920657869737400000000000000000000000000000000000000600082015250565b6000611f70600d83611da3565b9150611f7b82611f3a565b602082019050919050565b60006020820190508181036000830152611f9f81611f63565b9050919050565b7f416c726561647920757365726e616d652074616b656e00000000000000000000600082015250565b6000611fdc601683611da3565b9150611fe782611fa6565b602082019050919050565b6000602082019050818103600083015261200b81611fcf565b9050919050565b60008190508160005260206000209050919050565b60006020601f8301049050919050565b600082821b905092915050565b6000600883026120747fffffffffffffffffffffffffffffffffffffffffffffffffffffffffffffffff82612037565b61207e8683612037565b95508019841693508086168417925050509392505050565b6000819050919050565b6000819050919050565b60006120c56120c06120bb84612096565b6120a0565b612096565b9050919050565b6000819050919050565b6120df836120aa565b6120f36120eb826120cc565b848454612044565b825550505050565b600090565b6121086120fb565b6121138184846120d6565b505050565b5b818110156121375761212c600082612100565b600181019050612119565b5050565b601f82111561217c5761214d81612012565b61215684612027565b81016020851015612165578190505b61217961217185612027565b830182612118565b50505b505050565b600082821c905092915050565b600061219f60001984600802612181565b1980831691505092915050565b60006121b8838361218e565b9150826002028217905092915050565b6121d182611a37565b67ffffffffffffffff8111156121ea576121e96116d9565b5b6121f48254611e4f565b6121ff82828561213b565b600060209050601f8311600181146122325760008415612220578287015190505b61222a85826121ac565b865550612292565b601f19841661224086612012565b60005b8281101561226857848901518255600182019150602085019450602081019050612243565b868310156122855784890151612281601f89168261218e565b8355505b6001600288020188555050505b505050505050565b7f4e6f206163636f756e74207769746820746861742077616c6c65740000000000600082015250565b60006122d0601b83611da3565b91506122db8261229a565b602082019050919050565b600060208201905081810360008301526122ff816122c3565b9050919050565b7f4e487b7100000000000000000000000000000000000000000000000000000000600052603260045260246000fd5b7f4e487b7100000000000000000000000000000000000000000000000000000000600052601160045260246000fd5b600061236f82612096565b91507fffffffffffffffffffffffffffffffffffffffffffffffffffffffffffffffff82036123a1576123a0612335565b5b60018201905091905056fea26469706673582212202be3fa514a770f5ec564680a5ad7e9367126e3d79ee53bdc01c83602e985e3ff64736f6c63430008130033",
  "immutableReferences": {},
  "source": "// SPDX-License-Identifier: MIT\r\npragma solidity >=0.4.22 <0.9.0;\r\n\r\ncontract userManagement {\r\n  struct User{\r\n    address _userAddress; // Mandatory\r\n    string _userName;\r\n    string _userPassword;\r\n    string _userRole; // Mandatory\r\n    string _userEmail;\r\n    bool _exist;\r\n  }\r\n\r\n  mapping(address=>User) users; // user wallet address is pointing a structure of user -> users[_users[0]]\r\n  mapping(string=>User) usernames; // _usernames[username]\r\n  address[] userAddresses; // user dynamic array of wallet addresses, _users[0], _users[1]\r\n\r\n\r\n  // It will create an account of user\r\n  function userSignUp(address wallet,string memory username,string memory password,string memory role,string memory email) public {\r\n    require(!users[wallet]._exist,\"Already exist\"); // require condition should be always false\r\n    require(!usernames[username]._exist,\"Already username taken\"); \r\n\r\n    // Structure Member\r\n    User memory new_user=User(wallet,username,password,role,email,true);\r\n    users[wallet]=new_user;\r\n    usernames[username]=new_user; // new_user is a structure of records\r\n    userAddresses.push(wallet); // it will push wallet address\r\n  }\r\n\r\n  // It will return all the registered Users\r\n  function viewAllUsers() public view returns(User[] memory){\r\n    User[] memory _userArray = new User[] (userAddresses.length); // 100 chairs (empty)\r\n    // empty structures create -> the length of userAddress (1)\r\n\r\n    for (uint256 i = 0; i < userAddresses.length; i++) { // 0<1 // 100 students one-by-one seating\r\n            _userArray[i] = users[userAddresses[i]]; // users[wallet]\r\n    }\r\n\r\n    return _userArray; \r\n  }\r\n\r\n  // It will return only one record of user based on username\r\n  function viewUserByUsername(string memory username) public view returns(User memory) {\r\n    require(usernames[username]._exist,\"No account with that username\"); // true\r\n    return usernames[username];\r\n  }\r\n\r\n  // It will return only one record of user based on wallet\r\n  function viewUserByWallet(address wallet) public view returns(User memory) {\r\n    require(users[wallet]._exist,\"No account with that wallet\");\r\n    return users[wallet];\r\n  }\r\n\r\n  // It will validate the login details of user\r\n  function userLogin(string memory username,string memory password) public view returns(bool){\r\n    require(usernames[username]._exist,\"No account with that username\"); \r\n\r\n    if(keccak256(bytes(username))==keccak256(bytes(usernames[username]._userName))){\r\n      if(keccak256(bytes(password))==keccak256(bytes(usernames[username]._userPassword))){\r\n        return true;\r\n      } else {\r\n        return false;\r\n      }\r\n    } else {\r\n      return false;\r\n    }\r\n  }\r\n  function viewUsersByRole(string memory role) public view returns (User[] memory) {\r\n        uint256 count = 0;\r\n\r\n        // Count users with the specified role\r\n        for (uint256 i = 0; i < userAddresses.length; i++) {\r\n            if (keccak256(bytes(users[userAddresses[i]]._userRole)) == keccak256(bytes(role))) {\r\n                count++;\r\n            }\r\n        }\r\n\r\n        // Create an array to hold the matching users\r\n        User[] memory filteredUsers = new User[](count);\r\n        uint256 index = 0;\r\n\r\n        for (uint256 i = 0; i < userAddresses.length; i++) {\r\n            if (keccak256(bytes(users[userAddresses[i]]._userRole)) == keccak256(bytes(role))) {\r\n                filteredUsers[index] = users[userAddresses[i]];\r\n                index++;\r\n            }\r\n        }\r\n\r\n        return filteredUsers;\r\n    }\r\n}\r\n",
  "sourcePath": "C:\\Users\\Sudheer\\Downloads\\Supplier-Selection-in-Healthcare-using-Blockchain-IT-Project\\contracts\\userManagement.sol",
  "compiler": {
    "name": "solc",
    "version": "0.8.19+commit.7dd6d404.Emscripten.clang"
  },
  "schemaVersion": "3.4.16",
  "updatedAt": "2025-02-16T08:25:21.174Z",
  "networkType": "ethereum",
  "devdoc": {
    "kind": "dev",
    "methods": {},
    "version": 1
  },
  "userdoc": {
    "kind": "user",
    "methods": {},
    "version": 1
  }
}